{
  "_format": "hh-sol-artifact-1",
  "contractName": "CoffeePortal",
  "sourceName": "contracts/CoffeePortal.sol",
  "abi": [
    {
      "inputs": [],
      "stateMutability": "payable",
      "type": "constructor"
    },
    {
      "anonymous": false,
      "inputs": [
        {
          "indexed": true,
          "internalType": "address",
          "name": "from",
          "type": "address"
        },
        {
          "indexed": false,
          "internalType": "uint256",
          "name": "timestamp",
          "type": "uint256"
        },
        {
          "indexed": false,
          "internalType": "string",
          "name": "message",
          "type": "string"
        },
        {
          "indexed": false,
          "internalType": "string",
          "name": "name",
          "type": "string"
        }
      ],
      "name": "NewCoffee",
      "type": "event"
    },
    {
      "inputs": [
        {
          "internalType": "string",
          "name": "_message",
          "type": "string"
        },
        {
          "internalType": "string",
          "name": "_name",
          "type": "string"
        },
        {
          "internalType": "uint256",
          "name": "_payAmount",
          "type": "uint256"
        }
      ],
      "name": "buyCoffee",
      "outputs": [],
      "stateMutability": "payable",
      "type": "function"
    },
    {
      "inputs": [],
      "name": "cost",
      "outputs": [
        {
          "internalType": "uint256",
          "name": "",
          "type": "uint256"
        }
      ],
      "stateMutability": "view",
      "type": "function"
    },
    {
      "inputs": [],
      "name": "getAllCoffee",
      "outputs": [
        {
          "components": [
            {
              "internalType": "address",
              "name": "giver",
              "type": "address"
            },
            {
              "internalType": "string",
              "name": "message",
              "type": "string"
            },
            {
              "internalType": "string",
              "name": "name",
              "type": "string"
            },
            {
              "internalType": "uint256",
              "name": "timestamp",
              "type": "uint256"
            }
          ],
          "internalType": "struct CoffeePortal.Coffee[]",
          "name": "",
          "type": "tuple[]"
        }
      ],
      "stateMutability": "view",
      "type": "function"
    },
    {
      "inputs": [],
      "name": "getTotalCoffee",
      "outputs": [
        {
          "internalType": "uint256",
          "name": "",
          "type": "uint256"
        }
      ],
      "stateMutability": "view",
      "type": "function"
    },
    {
      "inputs": [],
      "name": "owner",
      "outputs": [
        {
          "internalType": "address payable",
          "name": "",
          "type": "address"
        }
      ],
      "stateMutability": "view",
      "type": "function"
    },
    {
      "inputs": [
        {
          "internalType": "address payable",
          "name": "_to",
          "type": "address"
        },
        {
          "internalType": "string",
          "name": "_message",
          "type": "string"
        },
        {
          "internalType": "string",
          "name": "_name",
          "type": "string"
        }
      ],
      "name": "send",
      "outputs": [],
      "stateMutability": "payable",
      "type": "function"
    },
    {
      "inputs": [],
      "name": "transferAmount",
      "outputs": [
        {
          "internalType": "uint256",
          "name": "",
          "type": "uint256"
        }
      ],
      "stateMutability": "view",
      "type": "function"
    }
  ],
  "bytecode": "0x6080604052670de0b6b3a764000060005566038d7ea4c68000600155620000666040518060400160405280601281526020017f596f2120536d61727420436f6e74726163740000000000000000000000000000815250620000ad60201b620008851760201c565b33600360006101000a81548173ffffffffffffffffffffffffffffffffffffffff021916908373ffffffffffffffffffffffffffffffffffffffff16021790555062000241565b6200014d81604051602401620000c49190620001ba565b6040516020818303038152906040527f41304fac000000000000000000000000000000000000000000000000000000007bffffffffffffffffffffffffffffffffffffffffffffffffffffffff19166020820180517bffffffffffffffffffffffffffffffffffffffffffffffffffffffff83818316178352505050506200015060201b60201c565b50565b60008151905060006a636f6e736f6c652e6c6f679050602083016000808483855afa5050505050565b60006200018682620001de565b620001928185620001e9565b9350620001a4818560208601620001fa565b620001af8162000230565b840191505092915050565b60006020820190508181036000830152620001d6818462000179565b905092915050565b600081519050919050565b600082825260208201905092915050565b60005b838110156200021a578082015181840152602081019050620001fd565b838111156200022a576000848401525b50505050565b6000601f19601f8301169050919050565b6113c780620002516000396000f3fe6080604052600436106100705760003560e01c8063504d27fd1161004e578063504d27fd146100e75780638da5cb5b14610112578063d386beca1461013d578063efd719da1461016857610070565b806313faede614610075578063441315c5146100a05780634839ee3f146100bc575b600080fd5b34801561008157600080fd5b5061008a610184565b6040516100979190610fdf565b60405180910390f35b6100ba60048036038101906100b59190610c33565b61018a565b005b3480156100c857600080fd5b506100d161043d565b6040516100de9190610fdf565b60405180910390f35b3480156100f357600080fd5b506100fc61046b565b6040516101099190610fdf565b60405180910390f35b34801561011e57600080fd5b50610127610471565b6040516101349190610ee0565b60405180910390f35b34801561014957600080fd5b50610152610497565b60405161015f9190610efb565b60405180910390f35b610182600480360381019061017d9190610bb4565b61067a565b005b60015481565b6001548111156101cf576040517f08c379a00000000000000000000000000000000000000000000000000000000081526004016101c690610f9f565b60405180910390fd5b6001600260008282546101e29190611106565b925050819055506102286040518060400160405280601a81526020017f257320686173206a7573742073656e74206120636f66666565210000000000008152503361091e565b600460405180608001604052803373ffffffffffffffffffffffffffffffffffffffff16815260200185815260200184815260200142815250908060018154018082558091505060019003906000526020600020906004020160009091909190915060008201518160000160006101000a81548173ffffffffffffffffffffffffffffffffffffffff021916908373ffffffffffffffffffffffffffffffffffffffff16021790555060208201518160010190805190602001906102ed929190610a7f565b50604082015181600201908051906020019061030a929190610a7f565b506060820151816003015550506000600360009054906101000a900473ffffffffffffffffffffffffffffffffffffffff1673ffffffffffffffffffffffffffffffffffffffff168260405161035f90610ecb565b60006040518083038185875af1925050503d806000811461039c576040519150601f19603f3d011682016040523d82523d6000602084013e6103a1565b606091505b50509050806103e5576040517f08c379a00000000000000000000000000000000000000000000000000000000081526004016103dc90610fbf565b60405180910390fd5b3373ffffffffffffffffffffffffffffffffffffffff167f5d202edb9ac9aca913189e3c829f7fdbba23859e91379c70ecf7874fe39632a742868660405161042f93929190610ffa565b60405180910390a250505050565b6000610463604051806060016040528060218152602001611371602191396002546109ba565b600254905090565b60005481565b600360009054906101000a900473ffffffffffffffffffffffffffffffffffffffff1681565b60606004805480602002602001604051908101604052809291908181526020016000905b8282101561067157838290600052602060002090600402016040518060800160405290816000820160009054906101000a900473ffffffffffffffffffffffffffffffffffffffff1673ffffffffffffffffffffffffffffffffffffffff1673ffffffffffffffffffffffffffffffffffffffff168152602001600182018054610544906111ec565b80601f0160208091040260200160405190810160405280929190818152602001828054610570906111ec565b80156105bd5780601f10610592576101008083540402835291602001916105bd565b820191906000526020600020905b8154815290600101906020018083116105a057829003601f168201915b505050505081526020016002820180546105d6906111ec565b80601f0160208091040260200160405190810160405280929190818152602001828054610602906111ec565b801561064f5780601f106106245761010080835404028352916020019161064f565b820191906000526020600020905b81548152906001019060200180831161063257829003601f168201915b50505050508152602001600382015481525050815260200190600101906104bb565b50505050905090565b6001543411156106bf576040517f08c379a00000000000000000000000000000000000000000000000000000000081526004016106b690610f9f565b60405180910390fd5b8273ffffffffffffffffffffffffffffffffffffffff166108fc349081150290604051600060405180830381858888f19350505050158015610705573d6000803e3d6000fd5b506001600260008282546107199190611106565b9250508190555061075f6040518060400160405280601a81526020017f257320686173206a7573742073656e74206120636f66666565210000000000008152503361091e565b6000600360009054906101000a900473ffffffffffffffffffffffffffffffffffffffff1673ffffffffffffffffffffffffffffffffffffffff16346040516107a790610ecb565b60006040518083038185875af1925050503d80600081146107e4576040519150601f19603f3d011682016040523d82523d6000602084013e6107e9565b606091505b505090508061082d576040517f08c379a000000000000000000000000000000000000000000000000000000000815260040161082490610fbf565b60405180910390fd5b3373ffffffffffffffffffffffffffffffffffffffff167f5d202edb9ac9aca913189e3c829f7fdbba23859e91379c70ecf7874fe39632a742858560405161087793929190610ffa565b60405180910390a250505050565b61091b816040516024016108999190610f1d565b6040516020818303038152906040527f41304fac000000000000000000000000000000000000000000000000000000007bffffffffffffffffffffffffffffffffffffffffffffffffffffffff19166020820180517bffffffffffffffffffffffffffffffffffffffffffffffffffffffff8381831617835250505050610a56565b50565b6109b68282604051602401610934929190610f3f565b6040516020818303038152906040527f319af333000000000000000000000000000000000000000000000000000000007bffffffffffffffffffffffffffffffffffffffffffffffffffffffff19166020820180517bffffffffffffffffffffffffffffffffffffffffffffffffffffffff8381831617835250505050610a56565b5050565b610a5282826040516024016109d0929190610f6f565b6040516020818303038152906040527fb60e72cc000000000000000000000000000000000000000000000000000000007bffffffffffffffffffffffffffffffffffffffffffffffffffffffff19166020820180517bffffffffffffffffffffffffffffffffffffffffffffffffffffffff8381831617835250505050610a56565b5050565b60008151905060006a636f6e736f6c652e6c6f679050602083016000808483855afa5050505050565b828054610a8b906111ec565b90600052602060002090601f016020900481019282610aad5760008555610af4565b82601f10610ac657805160ff1916838001178555610af4565b82800160010185558215610af4579182015b82811115610af3578251825591602001919060010190610ad8565b5b509050610b019190610b05565b5090565b5b80821115610b1e576000816000905550600101610b06565b5090565b6000610b35610b3084611064565b61103f565b905082815260208101848484011115610b4d57600080fd5b610b588482856111aa565b509392505050565b600081359050610b6f81611342565b92915050565b600082601f830112610b8657600080fd5b8135610b96848260208601610b22565b91505092915050565b600081359050610bae81611359565b92915050565b600080600060608486031215610bc957600080fd5b6000610bd786828701610b60565b935050602084013567ffffffffffffffff811115610bf457600080fd5b610c0086828701610b75565b925050604084013567ffffffffffffffff811115610c1d57600080fd5b610c2986828701610b75565b9150509250925092565b600080600060608486031215610c4857600080fd5b600084013567ffffffffffffffff811115610c6257600080fd5b610c6e86828701610b75565b935050602084013567ffffffffffffffff811115610c8b57600080fd5b610c9786828701610b75565b9250506040610ca886828701610b9f565b9150509250925092565b6000610cbe8383610e43565b905092915050565b610ccf8161116e565b82525050565b610cde8161115c565b82525050565b610ced8161115c565b82525050565b6000610cfe826110a5565b610d0881856110c8565b935083602082028501610d1a85611095565b8060005b85811015610d565784840389528151610d378582610cb2565b9450610d42836110bb565b925060208a01995050600181019050610d1e565b50829750879550505050505092915050565b6000610d73826110b0565b610d7d81856110e4565b9350610d8d8185602086016111b9565b610d96816112dc565b840191505092915050565b6000610dac826110b0565b610db681856110f5565b9350610dc68185602086016111b9565b610dcf816112dc565b840191505092915050565b6000610de7601b836110f5565b9150610df2826112ed565b602082019050919050565b6000610e0a6014836110f5565b9150610e1582611316565b602082019050919050565b6000610e2d6000836110d9565b9150610e388261133f565b600082019050919050565b6000608083016000830151610e5b6000860182610cd5565b5060208301518482036020860152610e738282610d68565b91505060408301518482036040860152610e8d8282610d68565b9150506060830151610ea26060860182610ead565b508091505092915050565b610eb6816111a0565b82525050565b610ec5816111a0565b82525050565b6000610ed682610e20565b9150819050919050565b6000602082019050610ef56000830184610cc6565b92915050565b60006020820190508181036000830152610f158184610cf3565b905092915050565b60006020820190508181036000830152610f378184610da1565b905092915050565b60006040820190508181036000830152610f598185610da1565b9050610f686020830184610ce4565b9392505050565b60006040820190508181036000830152610f898185610da1565b9050610f986020830184610ebc565b9392505050565b60006020820190508181036000830152610fb881610dda565b9050919050565b60006020820190508181036000830152610fd881610dfd565b9050919050565b6000602082019050610ff46000830184610ebc565b92915050565b600060608201905061100f6000830186610ebc565b81810360208301526110218185610da1565b905081810360408301526110358184610da1565b9050949350505050565b600061104961105a565b9050611055828261121e565b919050565b6000604051905090565b600067ffffffffffffffff82111561107f5761107e6112ad565b5b611088826112dc565b9050602081019050919050565b6000819050602082019050919050565b600081519050919050565b600081519050919050565b6000602082019050919050565b600082825260208201905092915050565b600081905092915050565b600082825260208201905092915050565b600082825260208201905092915050565b6000611111826111a0565b915061111c836111a0565b9250827fffffffffffffffffffffffffffffffffffffffffffffffffffffffffffffffff038211156111515761115061124f565b5b828201905092915050565b600061116782611180565b9050919050565b600061117982611180565b9050919050565b600073ffffffffffffffffffffffffffffffffffffffff82169050919050565b6000819050919050565b82818337600083830152505050565b60005b838110156111d75780820151818401526020810190506111bc565b838111156111e6576000848401525b50505050565b6000600282049050600182168061120457607f821691505b602082108114156112185761121761127e565b5b50919050565b611227826112dc565b810181811067ffffffffffffffff82111715611246576112456112ad565b5b80604052505050565b7f4e487b7100000000000000000000000000000000000000000000000000000000600052601160045260246000fd5b7f4e487b7100000000000000000000000000000000000000000000000000000000600052602260045260246000fd5b7f4e487b7100000000000000000000000000000000000000000000000000000000600052604160045260246000fd5b6000601f19601f8301169050919050565b7f496e73756666696369656e742045746865722070726f76696465640000000000600082015250565b7f4661696c656420746f2073656e64206d6f6e6579000000000000000000000000600082015250565b50565b61134b8161116e565b811461135657600080fd5b50565b611362816111a0565b811461136d57600080fd5b5056fe5765206861766520256420746f74616c20636f6666656520726563696576656420a26469706673582212204858ca9cc22ddb11c557940a759b1e19e977bdf820488d5cc1db4865676130f064736f6c63430008040033",
  "linkReferences": {},
  "deployedLinkReferences": {}
}